{
  "_format": "hh-sol-artifact-1",
  "contractName": "Flower",
  "sourceName": "contracts/Flower.sol",
  "abi": [
    {
      "inputs": [],
      "stateMutability": "nonpayable",
      "type": "constructor"
    },
    {
      "anonymous": false,
      "inputs": [
        {
          "indexed": true,
          "internalType": "address",
          "name": "owner",
          "type": "address"
        },
        {
          "indexed": true,
          "internalType": "address",
          "name": "approved",
          "type": "address"
        },
        {
          "indexed": true,
          "internalType": "uint256",
          "name": "tokenId",
          "type": "uint256"
        }
      ],
      "name": "Approval",
      "type": "event"
    },
    {
      "anonymous": false,
      "inputs": [
        {
          "indexed": true,
          "internalType": "address",
          "name": "owner",
          "type": "address"
        },
        {
          "indexed": true,
          "internalType": "address",
          "name": "operator",
          "type": "address"
        },
        {
          "indexed": false,
          "internalType": "bool",
          "name": "approved",
          "type": "bool"
        }
      ],
      "name": "ApprovalForAll",
      "type": "event"
    },
    {
      "anonymous": false,
      "inputs": [
        {
          "indexed": true,
          "internalType": "address",
          "name": "previousOwner",
          "type": "address"
        },
        {
          "indexed": true,
          "internalType": "address",
          "name": "newOwner",
          "type": "address"
        }
      ],
      "name": "OwnershipTransferred",
      "type": "event"
    },
    {
      "anonymous": false,
      "inputs": [
        {
          "indexed": true,
          "internalType": "address",
          "name": "from",
          "type": "address"
        },
        {
          "indexed": true,
          "internalType": "address",
          "name": "to",
          "type": "address"
        },
        {
          "indexed": true,
          "internalType": "uint256",
          "name": "tokenId",
          "type": "uint256"
        }
      ],
      "name": "Transfer",
      "type": "event"
    },
    {
      "inputs": [
        {
          "internalType": "address",
          "name": "to",
          "type": "address"
        },
        {
          "internalType": "uint256",
          "name": "tokenId",
          "type": "uint256"
        }
      ],
      "name": "approve",
      "outputs": [],
      "stateMutability": "nonpayable",
      "type": "function"
    },
    {
      "inputs": [
        {
          "internalType": "address",
          "name": "owner",
          "type": "address"
        }
      ],
      "name": "balanceOf",
      "outputs": [
        {
          "internalType": "uint256",
          "name": "",
          "type": "uint256"
        }
      ],
      "stateMutability": "view",
      "type": "function"
    },
    {
      "inputs": [
        {
          "internalType": "uint256",
          "name": "tokenId",
          "type": "uint256"
        }
      ],
      "name": "getApproved",
      "outputs": [
        {
          "internalType": "address",
          "name": "",
          "type": "address"
        }
      ],
      "stateMutability": "view",
      "type": "function"
    },
    {
      "inputs": [
        {
          "internalType": "address",
          "name": "owner",
          "type": "address"
        },
        {
          "internalType": "address",
          "name": "operator",
          "type": "address"
        }
      ],
      "name": "isApprovedForAll",
      "outputs": [
        {
          "internalType": "bool",
          "name": "",
          "type": "bool"
        }
      ],
      "stateMutability": "view",
      "type": "function"
    },
    {
      "inputs": [],
      "name": "mintFlower",
      "outputs": [
        {
          "internalType": "uint256",
          "name": "",
          "type": "uint256"
        }
      ],
      "stateMutability": "nonpayable",
      "type": "function"
    },
    {
      "inputs": [],
      "name": "name",
      "outputs": [
        {
          "internalType": "string",
          "name": "",
          "type": "string"
        }
      ],
      "stateMutability": "view",
      "type": "function"
    },
    {
      "inputs": [],
      "name": "owner",
      "outputs": [
        {
          "internalType": "address",
          "name": "",
          "type": "address"
        }
      ],
      "stateMutability": "view",
      "type": "function"
    },
    {
      "inputs": [
        {
          "internalType": "uint256",
          "name": "tokenId",
          "type": "uint256"
        }
      ],
      "name": "ownerOf",
      "outputs": [
        {
          "internalType": "address",
          "name": "",
          "type": "address"
        }
      ],
      "stateMutability": "view",
      "type": "function"
    },
    {
      "inputs": [],
      "name": "renounceOwnership",
      "outputs": [],
      "stateMutability": "nonpayable",
      "type": "function"
    },
    {
      "inputs": [
        {
          "internalType": "address",
          "name": "from",
          "type": "address"
        },
        {
          "internalType": "address",
          "name": "to",
          "type": "address"
        },
        {
          "internalType": "uint256",
          "name": "tokenId",
          "type": "uint256"
        }
      ],
      "name": "safeTransferFrom",
      "outputs": [],
      "stateMutability": "nonpayable",
      "type": "function"
    },
    {
      "inputs": [
        {
          "internalType": "address",
          "name": "from",
          "type": "address"
        },
        {
          "internalType": "address",
          "name": "to",
          "type": "address"
        },
        {
          "internalType": "uint256",
          "name": "tokenId",
          "type": "uint256"
        },
        {
          "internalType": "bytes",
          "name": "_data",
          "type": "bytes"
        }
      ],
      "name": "safeTransferFrom",
      "outputs": [],
      "stateMutability": "nonpayable",
      "type": "function"
    },
    {
      "inputs": [
        {
          "internalType": "address",
          "name": "operator",
          "type": "address"
        },
        {
          "internalType": "bool",
          "name": "approved",
          "type": "bool"
        }
      ],
      "name": "setApprovalForAll",
      "outputs": [],
      "stateMutability": "nonpayable",
      "type": "function"
    },
    {
      "inputs": [
        {
          "internalType": "bytes4",
          "name": "interfaceId",
          "type": "bytes4"
        }
      ],
      "name": "supportsInterface",
      "outputs": [
        {
          "internalType": "bool",
          "name": "",
          "type": "bool"
        }
      ],
      "stateMutability": "view",
      "type": "function"
    },
    {
      "inputs": [],
      "name": "symbol",
      "outputs": [
        {
          "internalType": "string",
          "name": "",
          "type": "string"
        }
      ],
      "stateMutability": "view",
      "type": "function"
    },
    {
      "inputs": [
        {
          "internalType": "uint256",
          "name": "id",
          "type": "uint256"
        }
      ],
      "name": "tokenURI",
      "outputs": [
        {
          "internalType": "string",
          "name": "",
          "type": "string"
        }
      ],
      "stateMutability": "view",
      "type": "function"
    },
    {
      "inputs": [
        {
          "internalType": "address",
          "name": "from",
          "type": "address"
        },
        {
          "internalType": "address",
          "name": "to",
          "type": "address"
        },
        {
          "internalType": "uint256",
          "name": "tokenId",
          "type": "uint256"
        }
      ],
      "name": "transferFrom",
      "outputs": [],
      "stateMutability": "nonpayable",
      "type": "function"
    },
    {
      "inputs": [
        {
          "internalType": "address",
          "name": "newOwner",
          "type": "address"
        }
      ],
      "name": "transferOwnership",
      "outputs": [],
      "stateMutability": "nonpayable",
      "type": "function"
    }
  ],
  "bytecode": "0x608060405262015180426200001591906200026a565b6008553480156200002557600080fd5b506040518060400160405280600e81526020017f466c6f776572206f6620486f70650000000000000000000000000000000000008152506040518060400160405280600481526020017f484f5045000000000000000000000000000000000000000000000000000000008152508160009080519060200190620000aa929190620001ba565b508060019080519060200190620000c3929190620001ba565b505050620000e6620000da620000ec60201b60201c565b620000f460201b60201c565b62000365565b600033905090565b6000600660009054906101000a900473ffffffffffffffffffffffffffffffffffffffff16905081600660006101000a81548173ffffffffffffffffffffffffffffffffffffffff021916908373ffffffffffffffffffffffffffffffffffffffff1602179055508173ffffffffffffffffffffffffffffffffffffffff168173ffffffffffffffffffffffffffffffffffffffff167f8be0079c531659141344cd1fd0a4f28419497f9722a3daafe3b4186f6b6457e060405160405180910390a35050565b828054620001c890620002d1565b90600052602060002090601f016020900481019282620001ec576000855562000238565b82601f106200020757805160ff191683800117855562000238565b8280016001018555821562000238579182015b82811115620002375782518255916020019190600101906200021a565b5b5090506200024791906200024b565b5090565b5b80821115620002665760008160009055506001016200024c565b5090565b60006200027782620002c7565b91506200028483620002c7565b9250827fffffffffffffffffffffffffffffffffffffffffffffffffffffffffffffffff03821115620002bc57620002bb62000307565b5b828201905092915050565b6000819050919050565b60006002820490506001821680620002ea57607f821691505b6020821081141562000301576200030062000336565b5b50919050565b7f4e487b7100000000000000000000000000000000000000000000000000000000600052601160045260246000fd5b7f4e487b7100000000000000000000000000000000000000000000000000000000600052602260045260246000fd5b61471680620003756000396000f3fe608060405234801561001057600080fd5b506004361061010b5760003560e01c806370a08231116100a2578063a22cb46511610071578063a22cb465146102a6578063b88d4fde146102c2578063c87b56dd146102de578063e985e9c51461030e578063f2fde38b1461033e5761010b565b806370a0823114610230578063715018a6146102605780638da5cb5b1461026a57806395d89b41146102885761010b565b8063095ea7b3116100de578063095ea7b3146101ac57806323b872dd146101c857806342842e0e146101e45780636352211e146102005761010b565b80630181491a1461011057806301ffc9a71461012e57806306fdde031461015e578063081812fc1461017c575b600080fd5b61011861035a565b604051610125919061362d565b60405180910390f35b61014860048036038101906101439190612999565b610600565b60405161015591906133f0565b60405180910390f35b6101666106e2565b604051610173919061340b565b60405180910390f35b610196600480360381019061019191906129eb565b610774565b6040516101a39190613389565b60405180910390f35b6101c660048036038101906101c1919061295d565b6107f9565b005b6101e260048036038101906101dd9190612857565b610911565b005b6101fe60048036038101906101f99190612857565b610971565b005b61021a600480360381019061021591906129eb565b610991565b6040516102279190613389565b60405180910390f35b61024a600480360381019061024591906127f2565b610a43565b604051610257919061362d565b60405180910390f35b610268610afb565b005b610272610b83565b60405161027f9190613389565b60405180910390f35b610290610bad565b60405161029d919061340b565b60405180910390f35b6102c060048036038101906102bb9190612921565b610c3f565b005b6102dc60048036038101906102d791906128a6565b610c55565b005b6102f860048036038101906102f391906129eb565b610cb7565b604051610305919061340b565b60405180910390f35b6103286004803603810190610323919061281b565b610ec4565b60405161033591906133f0565b60405180910390f35b610358600480360381019061035391906127f2565b610f58565b005b60006103666007611050565b60006103726007611066565b905061037e3382611074565b600060014361038d91906137f9565b403330846040516020016103a4949392919061310a565b6040516020818303038152906040528051906020012090506010816002602081106103f8577f4e487b7100000000000000000000000000000000000000000000000000000000600052603260045260246000fd5b1a60f81b7effffffffffffffffffffffffffffffffffffffffffffffffffffffffffffff1916901c7effffffffffffffffffffffffffffffffffffffffffffffffffffffffffffff191660088260016020811061047e577f4e487b7100000000000000000000000000000000000000000000000000000000600052603260045260246000fd5b1a60f81b7effffffffffffffffffffffffffffffffffffffffffffffffffffffffffffff1916901c7effffffffffffffffffffffffffffffffffffffffffffffffffffffffffffff191682600060208110610502577f4e487b7100000000000000000000000000000000000000000000000000000000600052603260045260246000fd5b1a60f81b7effffffffffffffffffffffffffffffffffffffffffffffffffffffffffffff1916177dffffffffffffffffffffffffffffffffffffffffffffffffffffffffffff1916176009600084815260200190815260200160002060006101000a81548162ffffff021916908360e81c021790555060ff816003602081106105b4577f4e487b7100000000000000000000000000000000000000000000000000000000600052603260045260246000fd5b1a60f81b60f81c60ff166101f46105cb919061379f565b6105d5919061376e565b603c6105e191906136e1565b600a600084815260200190815260200160002081905550819250505090565b60007f80ac58cd000000000000000000000000000000000000000000000000000000007bffffffffffffffffffffffffffffffffffffffffffffffffffffffff1916827bffffffffffffffffffffffffffffffffffffffffffffffffffffffff191614806106cb57507f5b5e139f000000000000000000000000000000000000000000000000000000007bffffffffffffffffffffffffffffffffffffffffffffffffffffffff1916827bffffffffffffffffffffffffffffffffffffffffffffffffffffffff1916145b806106db57506106da8261124e565b5b9050919050565b6060600080546106f190613924565b80601f016020809104026020016040519081016040528092919081815260200182805461071d90613924565b801561076a5780601f1061073f5761010080835404028352916020019161076a565b820191906000526020600020905b81548152906001019060200180831161074d57829003601f168201915b5050505050905090565b600061077f826112b8565b6107be576040517f08c379a00000000000000000000000000000000000000000000000000000000081526004016107b5906135ad565b60405180910390fd5b6004600083815260200190815260200160002060009054906101000a900473ffffffffffffffffffffffffffffffffffffffff169050919050565b600061080482610991565b90508073ffffffffffffffffffffffffffffffffffffffff168373ffffffffffffffffffffffffffffffffffffffff161415610875576040517f08c379a000000000000000000000000000000000000000000000000000000000815260040161086c906135ed565b60405180910390fd5b8073ffffffffffffffffffffffffffffffffffffffff16610894611324565b73ffffffffffffffffffffffffffffffffffffffff1614806108c357506108c2816108bd611324565b610ec4565b5b610902576040517f08c379a00000000000000000000000000000000000000000000000000000000081526004016108f99061352d565b60405180910390fd5b61090c838361132c565b505050565b61092261091c611324565b826113e5565b610961576040517f08c379a00000000000000000000000000000000000000000000000000000000081526004016109589061360d565b60405180910390fd5b61096c8383836114c3565b505050565b61098c83838360405180602001604052806000815250610c55565b505050565b6000806002600084815260200190815260200160002060009054906101000a900473ffffffffffffffffffffffffffffffffffffffff169050600073ffffffffffffffffffffffffffffffffffffffff168173ffffffffffffffffffffffffffffffffffffffff161415610a3a576040517f08c379a0000000000000000000000000000000000000000000000000000000008152600401610a319061356d565b60405180910390fd5b80915050919050565b60008073ffffffffffffffffffffffffffffffffffffffff168273ffffffffffffffffffffffffffffffffffffffff161415610ab4576040517f08c379a0000000000000000000000000000000000000000000000000000000008152600401610aab9061354d565b60405180910390fd5b600360008373ffffffffffffffffffffffffffffffffffffffff1673ffffffffffffffffffffffffffffffffffffffff168152602001908152602001600020549050919050565b610b03611324565b73ffffffffffffffffffffffffffffffffffffffff16610b21610b83565b73ffffffffffffffffffffffffffffffffffffffff1614610b77576040517f08c379a0000000000000000000000000000000000000000000000000000000008152600401610b6e906135cd565b60405180910390fd5b610b81600061172a565b565b6000600660009054906101000a900473ffffffffffffffffffffffffffffffffffffffff16905090565b606060018054610bbc90613924565b80601f0160208091040260200160405190810160405280929190818152602001828054610be890613924565b8015610c355780601f10610c0a57610100808354040283529160200191610c35565b820191906000526020600020905b815481529060010190602001808311610c1857829003601f168201915b5050505050905090565b610c51610c4a611324565b83836117f0565b5050565b610c66610c60611324565b836113e5565b610ca5576040517f08c379a0000000000000000000000000000000000000000000000000000000008152600401610c9c9061360d565b60405180910390fd5b610cb18484848461195d565b50505050565b6060610cc2826112b8565b610d01576040517f08c379a0000000000000000000000000000000000000000000000000000000008152600401610cf8906134ed565b60405180910390fd5b6000610d0c836119b9565b604051602001610d1c9190613158565b60405160208183030381529060405290506000610d786009600086815260200190815260200160002060009054906101000a900460e81b7cffffffffffffffffffffffffffffffffffffffffffffffffffffffffff1916611b66565b610d94600a600087815260200190815260200160002054611e67565b604051602001610da5929190613317565b60405160208183030381529060405290506000610dc9610dc48661203c565b612073565b9050610e9b8383610dd9886119b9565b610e22600960008b815260200190815260200160002060009054906101000a900460e81b7cffffffffffffffffffffffffffffffffffffffffffffffffffffffffff1916611b66565b610e3e600a60008c815260200190815260200160002054611e67565b610e706014610e4c8d610991565b73ffffffffffffffffffffffffffffffffffffffff1661221290919063ffffffff16565b87604051602001610e87979695949392919061317a565b604051602081830303815290604052612073565b604051602001610eab91906132f5565b6040516020818303038152906040529350505050919050565b6000600560008473ffffffffffffffffffffffffffffffffffffffff1673ffffffffffffffffffffffffffffffffffffffff16815260200190815260200160002060008373ffffffffffffffffffffffffffffffffffffffff1673ffffffffffffffffffffffffffffffffffffffff16815260200190815260200160002060009054906101000a900460ff16905092915050565b610f60611324565b73ffffffffffffffffffffffffffffffffffffffff16610f7e610b83565b73ffffffffffffffffffffffffffffffffffffffff1614610fd4576040517f08c379a0000000000000000000000000000000000000000000000000000000008152600401610fcb906135cd565b60405180910390fd5b600073ffffffffffffffffffffffffffffffffffffffff168173ffffffffffffffffffffffffffffffffffffffff161415611044576040517f08c379a000000000000000000000000000000000000000000000000000000000815260040161103b9061344d565b60405180910390fd5b61104d8161172a565b50565b6001816000016000828254019250508190555050565b600081600001549050919050565b600073ffffffffffffffffffffffffffffffffffffffff168273ffffffffffffffffffffffffffffffffffffffff1614156110e4576040517f08c379a00000000000000000000000000000000000000000000000000000000081526004016110db9061358d565b60405180910390fd5b6110ed816112b8565b1561112d576040517f08c379a00000000000000000000000000000000000000000000000000000000081526004016111249061348d565b60405180910390fd5b611139600083836124c9565b6001600360008473ffffffffffffffffffffffffffffffffffffffff1673ffffffffffffffffffffffffffffffffffffffff168152602001908152602001600020600082825461118991906136e1565b92505081905550816002600083815260200190815260200160002060006101000a81548173ffffffffffffffffffffffffffffffffffffffff021916908373ffffffffffffffffffffffffffffffffffffffff160217905550808273ffffffffffffffffffffffffffffffffffffffff16600073ffffffffffffffffffffffffffffffffffffffff167fddf252ad1be2c89b69c2b068fc378daa952ba7f163c4a11628f55a4df523b3ef60405160405180910390a461124a600083836124ce565b5050565b60007f01ffc9a7000000000000000000000000000000000000000000000000000000007bffffffffffffffffffffffffffffffffffffffffffffffffffffffff1916827bffffffffffffffffffffffffffffffffffffffffffffffffffffffff1916149050919050565b60008073ffffffffffffffffffffffffffffffffffffffff166002600084815260200190815260200160002060009054906101000a900473ffffffffffffffffffffffffffffffffffffffff1673ffffffffffffffffffffffffffffffffffffffff1614159050919050565b600033905090565b816004600083815260200190815260200160002060006101000a81548173ffffffffffffffffffffffffffffffffffffffff021916908373ffffffffffffffffffffffffffffffffffffffff160217905550808273ffffffffffffffffffffffffffffffffffffffff1661139f83610991565b73ffffffffffffffffffffffffffffffffffffffff167f8c5be1e5ebec7d5bd14f71427d1e84f3dd0314c0f7b2291e5b200ac8c7c3b92560405160405180910390a45050565b60006113f0826112b8565b61142f576040517f08c379a00000000000000000000000000000000000000000000000000000000081526004016114269061350d565b60405180910390fd5b600061143a83610991565b90508073ffffffffffffffffffffffffffffffffffffffff168473ffffffffffffffffffffffffffffffffffffffff1614806114a957508373ffffffffffffffffffffffffffffffffffffffff1661149184610774565b73ffffffffffffffffffffffffffffffffffffffff16145b806114ba57506114b98185610ec4565b5b91505092915050565b8273ffffffffffffffffffffffffffffffffffffffff166114e382610991565b73ffffffffffffffffffffffffffffffffffffffff1614611539576040517f08c379a00000000000000000000000000000000000000000000000000000000081526004016115309061346d565b60405180910390fd5b600073ffffffffffffffffffffffffffffffffffffffff168273ffffffffffffffffffffffffffffffffffffffff1614156115a9576040517f08c379a00000000000000000000000000000000000000000000000000000000081526004016115a0906134ad565b60405180910390fd5b6115b48383836124c9565b6115bf60008261132c565b6001600360008573ffffffffffffffffffffffffffffffffffffffff1673ffffffffffffffffffffffffffffffffffffffff168152602001908152602001600020600082825461160f91906137f9565b925050819055506001600360008473ffffffffffffffffffffffffffffffffffffffff1673ffffffffffffffffffffffffffffffffffffffff168152602001908152602001600020600082825461166691906136e1565b92505081905550816002600083815260200190815260200160002060006101000a81548173ffffffffffffffffffffffffffffffffffffffff021916908373ffffffffffffffffffffffffffffffffffffffff160217905550808273ffffffffffffffffffffffffffffffffffffffff168473ffffffffffffffffffffffffffffffffffffffff167fddf252ad1be2c89b69c2b068fc378daa952ba7f163c4a11628f55a4df523b3ef60405160405180910390a46117258383836124ce565b505050565b6000600660009054906101000a900473ffffffffffffffffffffffffffffffffffffffff16905081600660006101000a81548173ffffffffffffffffffffffffffffffffffffffff021916908373ffffffffffffffffffffffffffffffffffffffff1602179055508173ffffffffffffffffffffffffffffffffffffffff168173ffffffffffffffffffffffffffffffffffffffff167f8be0079c531659141344cd1fd0a4f28419497f9722a3daafe3b4186f6b6457e060405160405180910390a35050565b8173ffffffffffffffffffffffffffffffffffffffff168373ffffffffffffffffffffffffffffffffffffffff16141561185f576040517f08c379a0000000000000000000000000000000000000000000000000000000008152600401611856906134cd565b60405180910390fd5b80600560008573ffffffffffffffffffffffffffffffffffffffff1673ffffffffffffffffffffffffffffffffffffffff16815260200190815260200160002060008473ffffffffffffffffffffffffffffffffffffffff1673ffffffffffffffffffffffffffffffffffffffff16815260200190815260200160002060006101000a81548160ff0219169083151502179055508173ffffffffffffffffffffffffffffffffffffffff168373ffffffffffffffffffffffffffffffffffffffff167f17307eab39ab6107e8899845ad3d59bd9653f200f220920489ca2b5937696c318360405161195091906133f0565b60405180910390a3505050565b6119688484846114c3565b611974848484846124d3565b6119b3576040517f08c379a00000000000000000000000000000000000000000000000000000000081526004016119aa9061342d565b60405180910390fd5b50505050565b60606000821415611a01576040518060400160405280600181526020017f30000000000000000000000000000000000000000000000000000000000000008152509050611b61565b600082905060005b60008214611a33578080611a1c90613987565b915050600a82611a2c919061376e565b9150611a09565b60008167ffffffffffffffff811115611a75577f4e487b7100000000000000000000000000000000000000000000000000000000600052604160045260246000fd5b6040519080825280601f01601f191660200182016040528015611aa75781602001600182028036833780820191505090505b5090505b60008514611b5a57600182611ac091906137f9565b9150600a85611acf9190613a08565b6030611adb91906136e1565b60f81b818381518110611b17577f4e487b7100000000000000000000000000000000000000000000000000000000600052603260045260246000fd5b60200101907effffffffffffffffffffffffffffffffffffffffffffffffffffffffffffff1916908160001a905350600a85611b53919061376e565b9450611aab565b8093505050505b919050565b60606000600667ffffffffffffffff811115611bab577f4e487b7100000000000000000000000000000000000000000000000000000000600052604160045260246000fd5b6040519080825280601f01601f191660200182016040528015611bdd5781602001600182028036833780820191505090505b50905060005b6003811015611e5d577f3031323334353637383961626364656600000000000000000000000000000000600f858360038110611c48577f4e487b7100000000000000000000000000000000000000000000000000000000600052603260045260246000fd5b1a60f81b60f81c1660ff1660108110611c8a577f4e487b7100000000000000000000000000000000000000000000000000000000600052603260045260246000fd5b1a60f81b826001600284611c9e919061379f565b611ca891906136e1565b81518110611cdf577f4e487b7100000000000000000000000000000000000000000000000000000000600052603260045260246000fd5b60200101907effffffffffffffffffffffffffffffffffffffffffffffffffffffffffffff1916908160001a9053507f3031323334353637383961626364656600000000000000000000000000000000600f6004868460038110611d6c577f4e487b7100000000000000000000000000000000000000000000000000000000600052603260045260246000fd5b1a60f81b7effffffffffffffffffffffffffffffffffffffffffffffffffffffffffffff1916901c60f81c1660ff1660108110611dd2577f4e487b7100000000000000000000000000000000000000000000000000000000600052603260045260246000fd5b1a60f81b82600283611de4919061379f565b81518110611e1b577f4e487b7100000000000000000000000000000000000000000000000000000000600052603260045260246000fd5b60200101907effffffffffffffffffffffffffffffffffffffffffffffffffffffffffffff1916908160001a9053508080611e5590613987565b915050611be3565b5080915050919050565b60606000821415611eaf576040518060400160405280600181526020017f30000000000000000000000000000000000000000000000000000000000000008152509050612037565b600082905060005b60008214611ee1578080611eca90613987565b915050600a82611eda919061376e565b9150611eb7565b60008167ffffffffffffffff811115611f23577f4e487b7100000000000000000000000000000000000000000000000000000000600052604160045260246000fd5b6040519080825280601f01601f191660200182016040528015611f555781602001600182028036833780820191505090505b50905060008290505b6000861461202f57600181611f7391906137f9565b90506000600a8088611f85919061376e565b611f8f919061379f565b87611f9a91906137f9565b6030611fa69190613737565b905060008160f81b905080848481518110611fea577f4e487b7100000000000000000000000000000000000000000000000000000000600052603260045260246000fd5b60200101907effffffffffffffffffffffffffffffffffffffffffffffffffffffffffffff1916908160001a905350600a88612026919061376e565b97505050611f5e565b819450505050505b919050565b606060006120498361266a565b604051602001612059919061335c565b604051602081830303815290604052905080915050919050565b60606000825114156120965760405180602001604052806000815250905061220d565b60006040518060600160405280604081526020016146a160409139905060006003600285516120c591906136e1565b6120cf919061376e565b60046120db919061379f565b905060006020826120ec91906136e1565b67ffffffffffffffff81111561212b577f4e487b7100000000000000000000000000000000000000000000000000000000600052604160045260246000fd5b6040519080825280601f01601f19166020018201604052801561215d5781602001600182028036833780820191505090505b509050818152600183018586518101602084015b818310156121cc576003830192508251603f8160121c168501518253600182019150603f81600c1c168501518253600182019150603f8160061c168501518253600182019150603f8116850151825360018201915050612171565b6003895106600181146121e657600281146121f657612201565b613d3d60f01b6002830352612201565b603d60f81b60018303525b50505050508093505050505b919050565b606060006002836002612225919061379f565b61222f91906136e1565b67ffffffffffffffff81111561226e577f4e487b7100000000000000000000000000000000000000000000000000000000600052604160045260246000fd5b6040519080825280601f01601f1916602001820160405280156122a05781602001600182028036833780820191505090505b5090507f3000000000000000000000000000000000000000000000000000000000000000816000815181106122fe577f4e487b7100000000000000000000000000000000000000000000000000000000600052603260045260246000fd5b60200101907effffffffffffffffffffffffffffffffffffffffffffffffffffffffffffff1916908160001a9053507f780000000000000000000000000000000000000000000000000000000000000081600181518110612388577f4e487b7100000000000000000000000000000000000000000000000000000000600052603260045260246000fd5b60200101907effffffffffffffffffffffffffffffffffffffffffffffffffffffffffffff1916908160001a905350600060018460026123c8919061379f565b6123d291906136e1565b90505b60018111156124be577f3031323334353637383961626364656600000000000000000000000000000000600f86166010811061243a577f4e487b7100000000000000000000000000000000000000000000000000000000600052603260045260246000fd5b1a60f81b828281518110612477577f4e487b7100000000000000000000000000000000000000000000000000000000600052603260045260246000fd5b60200101907effffffffffffffffffffffffffffffffffffffffffffffffffffffffffffff1916908160001a905350600485901c9450806124b7906138fa565b90506123d5565b508091505092915050565b505050565b505050565b60006124f48473ffffffffffffffffffffffffffffffffffffffff166126fe565b1561265d578373ffffffffffffffffffffffffffffffffffffffff1663150b7a0261251d611324565b8786866040518563ffffffff1660e01b815260040161253f94939291906133a4565b602060405180830381600087803b15801561255957600080fd5b505af192505050801561258a57506040513d601f19601f8201168201806040525081019061258791906129c2565b60015b61260d573d80600081146125ba576040519150601f19603f3d011682016040523d82523d6000602084013e6125bf565b606091505b50600081511415612605576040517f08c379a00000000000000000000000000000000000000000000000000000000081526004016125fc9061342d565b60405180910390fd5b805181602001fd5b63150b7a0260e01b7bffffffffffffffffffffffffffffffffffffffffffffffffffffffff1916817bffffffffffffffffffffffffffffffffffffffffffffffffffffffff191614915050612662565b600190505b949350505050565b606060006126b76009600085815260200190815260200160002060009054906101000a900460e81b7cffffffffffffffffffffffffffffffffffffffffffffffffffffffffff1916611b66565b6126d3600a6000868152602001908152602001600020546119b9565b6040516020016126e4929190613242565b604051602081830303815290604052905080915050919050565b6000808273ffffffffffffffffffffffffffffffffffffffff163b119050919050565b600061273461272f8461366d565b613648565b90508281526020810184848401111561274c57600080fd5b6127578482856138b8565b509392505050565b60008135905061276e81614644565b92915050565b6000813590506127838161465b565b92915050565b60008135905061279881614672565b92915050565b6000815190506127ad81614672565b92915050565b600082601f8301126127c457600080fd5b81356127d4848260208601612721565b91505092915050565b6000813590506127ec81614689565b92915050565b60006020828403121561280457600080fd5b60006128128482850161275f565b91505092915050565b6000806040838503121561282e57600080fd5b600061283c8582860161275f565b925050602061284d8582860161275f565b9150509250929050565b60008060006060848603121561286c57600080fd5b600061287a8682870161275f565b935050602061288b8682870161275f565b925050604061289c868287016127dd565b9150509250925092565b600080600080608085870312156128bc57600080fd5b60006128ca8782880161275f565b94505060206128db8782880161275f565b93505060406128ec878288016127dd565b925050606085013567ffffffffffffffff81111561290957600080fd5b612915878288016127b3565b91505092959194509250565b6000806040838503121561293457600080fd5b60006129428582860161275f565b925050602061295385828601612774565b9150509250929050565b6000806040838503121561297057600080fd5b600061297e8582860161275f565b925050602061298f858286016127dd565b9150509250929050565b6000602082840312156129ab57600080fd5b60006129b984828501612789565b91505092915050565b6000602082840312156129d457600080fd5b60006129e28482850161279e565b91505092915050565b6000602082840312156129fd57600080fd5b6000612a0b848285016127dd565b91505092915050565b612a1d8161382d565b82525050565b612a34612a2f8261382d565b6139d0565b82525050565b612a438161383f565b82525050565b612a5a612a558261384b565b6139e2565b82525050565b6000612a6b8261369e565b612a7581856136b4565b9350612a858185602086016138c7565b612a8e81613af5565b840191505092915050565b6000612aa4826136a9565b612aae81856136c5565b9350612abe8185602086016138c7565b612ac781613af5565b840191505092915050565b6000612add826136a9565b612ae781856136d6565b9350612af78185602086016138c7565b80840191505092915050565b6000612b106023836136d6565b9150612b1b82613b13565b602382019050919050565b6000612b336008836136d6565b9150612b3e82613b62565b600882019050919050565b6000612b566009836136d6565b9150612b6182613b8b565b600982019050919050565b6000612b79606b836136d6565b9150612b8482613bb4565b606b82019050919050565b6000612b9c6032836136c5565b9150612ba782613c4f565b604082019050919050565b6000612bbf6026836136c5565b9150612bca82613c9e565b604082019050919050565b6000612be26025836136c5565b9150612bed82613ced565b604082019050919050565b6000612c05600d836136d6565b9150612c1082613d3c565b600d82019050919050565b6000612c28601c836136c5565b9150612c3382613d65565b602082019050919050565b6000612c4b6010836136d6565b9150612c5682613d8e565b601082019050919050565b6000612c6e6067836136d6565b9150612c7982613db7565b606782019050919050565b6000612c916024836136c5565b9150612c9c82613e52565b604082019050919050565b6000612cb46019836136c5565b9150612cbf82613ea1565b602082019050919050565b6000612cd76014836136c5565b9150612ce282613eca565b602082019050919050565b6000612cfa602c836136c5565b9150612d0582613ef3565b604082019050919050565b6000612d1d600d836136d6565b9150612d2882613f42565b600d82019050919050565b6000612d406004836136d6565b9150612d4b82613f6b565b600482019050919050565b6000612d63600d836136d6565b9150612d6e82613f94565b600d82019050919050565b6000612d866038836136c5565b9150612d9182613fbd565b604082019050919050565b6000612da9602a836136c5565b9150612db48261400c565b604082019050919050565b6000612dcc6029836136c5565b9150612dd78261405b565b604082019050919050565b6000612def6002836136d6565b9150612dfa826140aa565b600282019050919050565b6000612e126020836136c5565b9150612e1d826140d3565b602082019050919050565b6000612e35600d836136d6565b9150612e40826140fc565b600d82019050919050565b6000612e586003836136d6565b9150612e6382614125565b600382019050919050565b6000612e7b606a836136d6565b9150612e868261414e565b606a82019050919050565b6000612e9e602c836136c5565b9150612ea9826141e9565b604082019050919050565b6000612ec16012836136d6565b9150612ecc82614238565b601282019050919050565b6000612ee46035836136d6565b9150612eef82614261565b603582019050919050565b6000612f076020836136c5565b9150612f12826142b0565b602082019050919050565b6000612f2a606a836136d6565b9150612f35826142d9565b606a82019050919050565b6000612f4d6004836136d6565b9150612f5882614374565b600482019050919050565b6000612f70603c836136d6565b9150612f7b8261439d565b603c82019050919050565b6000612f936021836136c5565b9150612f9e826143ec565b604082019050919050565b6000612fb6602f836136d6565b9150612fc18261443b565b602f82019050919050565b6000612fd9601d836136d6565b9150612fe48261448a565b601d82019050919050565b6000612ffc601a836136d6565b9150613007826144b3565b601a82019050919050565b600061301f6031836136c5565b915061302a826144dc565b604082019050919050565b60006130426041836136d6565b915061304d8261452b565b604182019050919050565b6000613065600d836136d6565b9150613070826145a0565b600d82019050919050565b6000613088601f836136d6565b9150613093826145c9565b601f82019050919050565b60006130ab6006836136d6565b91506130b6826145f2565b600682019050919050565b60006130ce601a836136d6565b91506130d98261461b565b601a82019050919050565b6130ed816138a1565b82525050565b6131046130ff826138a1565b6139fe565b82525050565b60006131168287612a49565b6020820191506131268286612a23565b6014820191506131368285612a23565b60148201915061314682846130f3565b60208201915081905095945050505050565b600061316382612b26565b915061316f8284612ad2565b915081905092915050565b600061318582612b49565b9150613191828a612ad2565b915061319c82612eb4565b91506131a88289612ad2565b91506131b382612fa9565b91506131bf8288612ad2565b91506131ca82612ed7565b91506131d68287612ad2565b91506131e182612b03565b91506131ed8286612ad2565b91506131f882613058565b91506132048285612ad2565b915061320f82612e28565b915061321a826130c1565b91506132268284612ad2565b915061323182612de2565b915081905098975050505050505050565b600061324d82612d56565b915061325882612f1d565b915061326382612b6c565b915061326e82612f40565b915061327982612bf8565b915061328482612c3e565b91506132908285612ad2565b915061329b82612f63565b91506132a78284612ad2565b91506132b28261307b565b91506132bd82612f40565b91506132c882612d10565b91506132d382612e6e565b91506132de82612c61565b91506132e982612f40565b91508190509392505050565b600061330082612fcc565b915061330c8284612ad2565b915081905092915050565b600061332282612fef565b915061332e8285612ad2565b915061333982612d33565b91506133458284612ad2565b915061335082612e4b565b91508190509392505050565b600061336782613035565b91506133738284612ad2565b915061337e8261309e565b915081905092915050565b600060208201905061339e6000830184612a14565b92915050565b60006080820190506133b96000830187612a14565b6133c66020830186612a14565b6133d360408301856130e4565b81810360608301526133e58184612a60565b905095945050505050565b60006020820190506134056000830184612a3a565b92915050565b600060208201905081810360008301526134258184612a99565b905092915050565b6000602082019050818103600083015261344681612b8f565b9050919050565b6000602082019050818103600083015261346681612bb2565b9050919050565b6000602082019050818103600083015261348681612bd5565b9050919050565b600060208201905081810360008301526134a681612c1b565b9050919050565b600060208201905081810360008301526134c681612c84565b9050919050565b600060208201905081810360008301526134e681612ca7565b9050919050565b6000602082019050818103600083015261350681612cca565b9050919050565b6000602082019050818103600083015261352681612ced565b9050919050565b6000602082019050818103600083015261354681612d79565b9050919050565b6000602082019050818103600083015261356681612d9c565b9050919050565b6000602082019050818103600083015261358681612dbf565b9050919050565b600060208201905081810360008301526135a681612e05565b9050919050565b600060208201905081810360008301526135c681612e91565b9050919050565b600060208201905081810360008301526135e681612efa565b9050919050565b6000602082019050818103600083015261360681612f86565b9050919050565b6000602082019050818103600083015261362681613012565b9050919050565b600060208201905061364260008301846130e4565b92915050565b6000613652613663565b905061365e8282613956565b919050565b6000604051905090565b600067ffffffffffffffff82111561368857613687613ac6565b5b61369182613af5565b9050602081019050919050565b600081519050919050565b600081519050919050565b600082825260208201905092915050565b600082825260208201905092915050565b600081905092915050565b60006136ec826138a1565b91506136f7836138a1565b9250827fffffffffffffffffffffffffffffffffffffffffffffffffffffffffffffffff0382111561372c5761372b613a39565b5b828201905092915050565b6000613742826138ab565b915061374d836138ab565b92508260ff0382111561376357613762613a39565b5b828201905092915050565b6000613779826138a1565b9150613784836138a1565b92508261379457613793613a68565b5b828204905092915050565b60006137aa826138a1565b91506137b5836138a1565b9250817fffffffffffffffffffffffffffffffffffffffffffffffffffffffffffffffff04831182151516156137ee576137ed613a39565b5b828202905092915050565b6000613804826138a1565b915061380f836138a1565b92508282101561382257613821613a39565b5b828203905092915050565b600061383882613881565b9050919050565b60008115159050919050565b6000819050919050565b60007fffffffff0000000000000000000000000000000000000000000000000000000082169050919050565b600073ffffffffffffffffffffffffffffffffffffffff82169050919050565b6000819050919050565b600060ff82169050919050565b82818337600083830152505050565b60005b838110156138e55780820151818401526020810190506138ca565b838111156138f4576000848401525b50505050565b6000613905826138a1565b9150600082141561391957613918613a39565b5b600182039050919050565b6000600282049050600182168061393c57607f821691505b602082108114156139505761394f613a97565b5b50919050565b61395f82613af5565b810181811067ffffffffffffffff8211171561397e5761397d613ac6565b5b80604052505050565b6000613992826138a1565b91507fffffffffffffffffffffffffffffffffffffffffffffffffffffffffffffffff8214156139c5576139c4613a39565b5b600182019050919050565b60006139db826139ec565b9050919050565b6000819050919050565b60006139f782613b06565b9050919050565b6000819050919050565b6000613a13826138a1565b9150613a1e836138a1565b925082613a2e57613a2d613a68565b5b828206905092915050565b7f4e487b7100000000000000000000000000000000000000000000000000000000600052601160045260246000fd5b7f4e487b7100000000000000000000000000000000000000000000000000000000600052601260045260246000fd5b7f4e487b7100000000000000000000000000000000000000000000000000000000600052602260045260246000fd5b7f4e487b7100000000000000000000000000000000000000000000000000000000600052604160045260246000fd5b6000601f19601f8301169050919050565b60008160601b9050919050565b7f227d2c7b2274726169745f74797065223a2022686f7065222c202276616c756560008201527f223a200000000000000000000000000000000000000000000000000000000000602082015250565b7f466c6f7765722023000000000000000000000000000000000000000000000000600082015250565b7f7b226e616d65223a220000000000000000000000000000000000000000000000600082015250565b7f3c656c6c697073652072793d22332e35222072783d22322e35222069643d227360008201527f76675f33222063793d223135342e35222063783d223137332e3522207374726f60208201527f6b652d77696474683d223322207374726f6b653d2223303030222066696c6c3d60408201527f2223303030303030222f3e000000000000000000000000000000000000000000606082015250565b7f4552433732313a207472616e7366657220746f206e6f6e20455243373231526560008201527f63656976657220696d706c656d656e7465720000000000000000000000000000602082015250565b7f4f776e61626c653a206e6577206f776e657220697320746865207a65726f206160008201527f6464726573730000000000000000000000000000000000000000000000000000602082015250565b7f4552433732313a207472616e736665722066726f6d20696e636f72726563742060008201527f6f776e6572000000000000000000000000000000000000000000000000000000602082015250565b7f3c672069643d2268656164223e00000000000000000000000000000000000000600082015250565b7f4552433732313a20746f6b656e20616c7265616479206d696e74656400000000600082015250565b7f3c656c6c697073652066696c6c3d222300000000000000000000000000000000600082015250565b7f3c656c6c697073652072793d22332e35222072783d2233222069643d2273766760008201527f5f34222063793d223136392e35222063783d2232303822207374726f6b652d7760208201527f696474683d2233222066696c6c3d222330303030303022207374726f6b653d2260408201527f23303030222f3e00000000000000000000000000000000000000000000000000606082015250565b7f4552433732313a207472616e7366657220746f20746865207a65726f2061646460008201527f7265737300000000000000000000000000000000000000000000000000000000602082015250565b7f4552433732313a20617070726f766520746f2063616c6c657200000000000000600082015250565b7f546f6b656e20646f6573206e6f74206578697374000000000000000000000000600082015250565b7f4552433732313a206f70657261746f7220717565727920666f72206e6f6e657860008201527f697374656e7420746f6b656e0000000000000000000000000000000000000000602082015250565b7f3c672069643d2265796532223e00000000000000000000000000000000000000600082015250565b7f636f6f6c00000000000000000000000000000000000000000000000000000000600082015250565b7f3c672069643d2265796531223e00000000000000000000000000000000000000600082015250565b7f4552433732313a20617070726f76652063616c6c6572206973206e6f74206f7760008201527f6e6572206e6f7220617070726f76656420666f7220616c6c0000000000000000602082015250565b7f4552433732313a2062616c616e636520717565727920666f7220746865207a6560008201527f726f206164647265737300000000000000000000000000000000000000000000602082015250565b7f4552433732313a206f776e657220717565727920666f72206e6f6e657869737460008201527f656e7420746f6b656e0000000000000000000000000000000000000000000000602082015250565b7f227d000000000000000000000000000000000000000000000000000000000000600082015250565b7f4552433732313a206d696e7420746f20746865207a65726f2061646472657373600082015250565b7f222c2022696d616765223a202200000000000000000000000000000000000000600082015250565b7f2121210000000000000000000000000000000000000000000000000000000000600082015250565b7f3c656c6c69707365207374726f6b652d77696474683d2233222072793d22323960008201527f2e35222072783d2232392e35222069643d227376675f32222063793d2231363860208201527f2e35222063783d223230392e3522207374726f6b653d2223303030222066696c60408201527f6c3d2223666666222f3e00000000000000000000000000000000000000000000606082015250565b7f4552433732313a20617070726f76656420717565727920666f72206e6f6e657860008201527f697374656e7420746f6b656e0000000000000000000000000000000000000000602082015250565b7f222c20226465736372697074696f6e223a220000000000000000000000000000600082015250565b7f222c202261747472696275746573223a205b7b2274726169745f74797065223a60008201527f2022636f6c6f72222c202276616c7565223a2022230000000000000000000000602082015250565b7f4f776e61626c653a2063616c6c6572206973206e6f7420746865206f776e6572600082015250565b7f3c656c6c69707365207374726f6b652d77696474683d2233222072793d22323960008201527f2e35222072783d2232392e35222069643d227376675f31222063793d2231353460208201527f2e35222063783d223138312e3522207374726f6b653d2223303030222066696c60408201527f6c3d2223666666222f3e00000000000000000000000000000000000000000000606082015250565b7f3c2f673e00000000000000000000000000000000000000000000000000000000600082015250565b7f22207374726f6b652d77696474683d2233222063783d223230342e352220637960008201527f3d223231312e3830303635222069643d227376675f35222072783d2200000000602082015250565b7f4552433732313a20617070726f76616c20746f2063757272656e74206f776e6560008201527f7200000000000000000000000000000000000000000000000000000000000000602082015250565b7f222c202265787465726e616c5f75726c223a2268747470733a2f2f6275726e7960008201527f626f79732e636f6d2f746f6b656e2f0000000000000000000000000000000000602082015250565b7f646174613a6170706c69636174696f6e2f6a736f6e3b6261736536342c000000600082015250565b7f7468697320466c6f7765722069732074686520636f6c6f722023000000000000600082015250565b7f4552433732313a207472616e736665722063616c6c6572206973206e6f74206f60008201527f776e6572206e6f7220617070726f766564000000000000000000000000000000602082015250565b7f3c7376672077696474683d2234303022206865696768743d223430302220786d60008201527f6c6e733d22687474703a2f2f7777772e77332e6f72672f323030302f7376672260208201527f3e00000000000000000000000000000000000000000000000000000000000000604082015250565b7f7d5d2c20226f776e6572223a2200000000000000000000000000000000000000600082015250565b7f222072793d2235312e383030363522207374726f6b653d2223303030222f3e00600082015250565b7f3c2f7376673e0000000000000000000000000000000000000000000000000000600082015250565b7f646174613a696d6167652f7376672b786d6c3b6261736536342c000000000000600082015250565b61464d8161382d565b811461465857600080fd5b50565b6146648161383f565b811461466f57600080fd5b50565b61467b81613855565b811461468657600080fd5b50565b614692816138a1565b811461469d57600080fd5b5056fe4142434445464748494a4b4c4d4e4f505152535455565758595a6162636465666768696a6b6c6d6e6f707172737475767778797a303132333435363738392b2fa2646970667358221220f4d8d137b777313df3097c00191b5c4c499599cf9e65051a7cd006f2eaf6312764736f6c63430008040033",
  "linkReferences": {},
  "deployedLinkReferences": {}
}